:100000000C946F000C94BF080C948C000C948C0022
:100010000C94100A0C948C000C948C000C948C00A2
:100020000C948C000C948C000C948C000C948C0020
:100030000C948C000C94F8090C94270A0C948C00F6
:100040000C948C000C948C000C948C000C948C0000
:100050000C948C000C948C000C948C000C948C00F0
:100060000C948C000C948C000403090412036900A6
:100070006B0061006C006F0067006900630016038D
:100080005300430041004E0041004C004F00470028
:10009000490043001201100100000008A020234184
:1000A0000001010200010902220001010080320961
:1000B00004000001030000000921010100012216D3
:1000C00000070581030800640600FF0901A101156E
:1000D0000026FF00750895800900B20201C01124B6
:1000E0001FBECFEFD4E0DEBFCDBF11E0A0E0B1E096
:1000F000EAE7F6E102C005900D92A230B107D9F708
:1001000012E0A2E0B1E001C01D92AB35B107E1F70A
:100110000E948E000C943B0B0C9400002F923F9297
:100120004F925F926F927F928F929F92AF92BF9207
:10013000CF92DF92EF92FF920F931F93DF93CF93B3
:10014000CDB7DEB728970FB6F894DEBF0FBECDBF90
:100150001092120184B7877F84BF8091600088610C
:10016000809360001092600080ED97E024EF31E012
:10017000F9013197F1F70197D9F7F8940E944907EF
:100180003D984598198281E08A8328E833E103C0CD
:10019000C9010197F1F78981815089838981882379
:1001A000B9F73D9A459A0E94DC097894219A299AD8
:1001B000209A289A229A2A9A249A2C9A279A8AB1C3
:1001C00087788AB9239A509A589880E593EC0197DA
:1001D000F1F72F9A239A2B9884E893E024EF31E0EB
:1001E000F9013197F1F70197D9F781E40E94C51D14
:1001F00084E893E024EF31E0F9013197F1F70197BA
:10020000D9F78AEA90E060EA40E00E94891D8AEA14
:1002100090E061EA41E00E94891D8AEA90E062EA8A
:1002200042E00E94891D8AEA90E063EA43E00E946E
:10023000891D84E893E024EF31E0F9013197F1F76B
:100240000197D9F78AEA9AE06AE043E60E94891D9D
:1002500084E893E024EF31E0F9013197F1F7019759
:10026000D9F781E40E94C51D84E893E024EF31E0D2
:10027000F9013197F1F70197D9F705E211E0C801CB
:1002800060E070E040E850E00E942C0B83E6F82E1E
:10029000F092260185E08093250183E090E00E94A2
:1002A000330B80931A0182E090E00E94330B80931D
:1002B0001B0181E090E00E94330B80931C0180E0E1
:1002C00090E00E94330B80931D01F0922301109265
:1002D000140255245394402E1887B4EF2B2EB1E00E
:1002E0003B2E80912301882319F0833609F077C0D3
:1002F00080911701813009F46DC0809115029091B1
:100300001602A0911702B09118020196A11DB11D0D
:100310008093150290931602A0931702B0931802CF
:100320008091150290911602A0911702B0911802C7
:100330008150944CA940B04040F0109215021092A8
:100340001602109217021092180280911402813046
:10035000A1F58091150290911602A0911702B0911B
:1003600018020097A105B10569F0809115029091DE
:100370001602A0911702B0911802805E9349A44022
:10038000B04049F480910701803F28F48091070133
:100390008F5F8093070180910701833070F02CE01C
:1003A00088E190E00FB6F894A895809360000FBEA6
:1003B00020936000509A5898FDCF8091150290913B
:1003C0001602A0911702B091180280509147A240E6
:1003D000B04018F4509A589A02C0509A5898809198
:1003E0002301863009F453C0873060F4813009F46A
:1003F0007DC08130B0F0823009F491C2833009F0C1
:1004000070CF13C48A3081F08B3020F4873009F02C
:1004100068CFAEC4823609F4D4C4833609F061CF04
:10042000ECC4109213025DCF80911A0180932601D3
:1004300080911B018093270180911C0180932801EA
:1004400080911D018093290150922A0183E08093BD
:100450002B0180910401813009F043CF842D9885D0
:1004600060E070E040E850E00E942C0B1092230105
:1004700093E69093260125E0209325011092270111
:100480001092280110922901109204012ACF109293
:10049000040187B1807F87B9219A2998229A2A9AE4
:1004A000209A2898249A2C9A86B1817080932601EC
:1004B00086B190E082709070959587958093270122
:1004C00086B190E084709070959587959595879505
:1004D0008093280186B190E088709070E3E0959554
:1004E0008795EA95E1F780932901FBCE509A5898B9
:1004F00081E40E94C51D279A8AB187788AB9239A18
:1005000080E593EC0197F1F72F9A239A2B9810929C
:10051000120210921E0110926C008FEF8BBB219A79
:10052000299A209A289A229A2A9A249A2C9A809177
:1005300026018230D1F0833089F1882309F049C047
:1005400082E062E040E050E00E94651D80E063E6EA
:100550000E94001C2F98239A2B9A84EC99E0F101B9
:100560003197F1F70197D9F731C083E062E040E0BD
:1005700050E00E94651D80E062E00E94001C80E067
:1005800063E00E94001C2F98239A2B9A84EC99E038
:10059000F1013197F1F70197D9F718C082E063E0D4
:1005A00040E050E00E94651D80E060E00E94001C79
:1005B00080E061E00E94001C2F98239A2B9A84EC23
:1005C00099E0F1013197F1F70197D9F72F9A239A22
:1005D0002B980E94831D8091270190912801909370
:1005E0000A02809309028091090290910A02A09167
:1005F0000B02B0910C0273E0880F991FAA1FBB1F5A
:100600007A95D1F78093090290930A02A0930B0286
:10061000B0930C028091290190912A0190932001BE
:1006200080931F0180911F0190912001A0912101D1
:10063000B091220163E0880F991FAA1FBB1F6A9522
:10064000D1F780931F0190932001A0932101B093D3
:10065000220100912601013071F0013028F00230B2
:10066000A9F0033001F515C082E062E040E050E0FF
:100670000E94651D16C083E063E040E050E00E94E8
:10068000651D509A589A009317010DC083E062E0EF
:1006900002C082E063E040E050E00E94651D509A95
:1006A000589A109217012F9A239A2B9887B1807F1E
:1006B00087B980912601813061F0813028F0823045
:1006C00069F08330E1F413C0219A2998229A2A9A7A
:1006D00009C0219A299A229A2A980DC0219A299A0A
:1006E000229A2A98209A2898249A2C9A08C0219A0B
:1006F0002998229A2A9A209A289A249A2C988091AA
:100700002C018093030180912D018093140180912D
:1007100003018330B9F082E08093680080912D015D
:10072000882311F48FE00CC020912D0130E021507E
:10073000304081E090E002C0880F991F2A95E2F7CF
:1007400080936C001092AC0180912F019091300148
:100750009093AB018093AA011092850010928400BF
:1007600010921A021092190220912B01253009F4DF
:100770005AC0263080F42230D1F1233030F42223C5
:10078000E9F0213009F08DC023C02330A9F12430D5
:1007900009F087C042C0283009F457C0293038F426
:1007A000263009F446C0273009F07BC048C0293004
:1007B00009F451C02A3009F074C060C081E090E0B3
:1007C00090930D0180930C012F98239A2B9A69C066
:1007D0001092B30082E090E090930D0180930C01A1
:1007E0002F9A239A2B9882E48093B00057C050929E
:1007F000B30084E090E004C02093B30088E090E070
:1008000090930D0180930C012F9A239A2B9882E4E8
:100810008093B0005092B10043C089E08093B30050
:1008200084E190E0EDCF93E19093B30088E290E013
:10083000E7CF87E28093B30080E590E0E1CF93E6D5
:100840009093B30088EC90E0DBCF87EC8093B3000B
:1008500080E991E0D5CF8CE78093B30080ED97E0FD
:1008600090930D0180930C012F9A239A2B9882E488
:100870008093B00082E08093B10012C089EF809332
:10088000B30080E89EE390930D0180930C012F9AB2
:10089000239A2B9882E48093B00023E02093B10048
:1008A000239A80911701813049F41092230183E645
:1008B0008093260195E09093250113CD50928100FD
:1008C00080910C0190910D019C01220F331F220F8A
:1008D000331F280F391F20931B028091030183309F
:1008E000A1F4109220021092210210922202109282
:1008F00023021092090210920A0210920B02109227
:100900000C02109209011092080182E080932301E9
:1009100021E62093260185E080932501E2CC809199
:10092000AC01823088F58091AC01882309F474C051
:10093000809103018130A9F0813020F0823009F0EC
:100940006BC01DC02091AD018091140130E090E09A
:10095000019702C0359527958A95E2F720FD5CC086
:100960000EC02091AD018091140130E090E001971C
:1009700002C0359527958A95E2F720FF4DC08091FA
:100980001302882309F048C020918400309185002B
:100990008091190290911A02A0E0B0E0DC01992741
:1009A000882740E050E0820F931FA41FB51F80935B
:1009B000200290932102A0932202B093230260911F
:1009C00020027091210280912202909123022091B5
:1009D0000C0130910D01E0900902F0900A020091A3
:1009E0000B0210910C0240E050E00E94010B2E1906
:1009F0003F09400B510B4370507083E0569547956B
:100A0000379527958A95D1F73093090120930801EE
:100A10005092130210926C0080911302813029F0E1
:100A200080910301833009F0EBC082E680932601B8
:100A300095E090932501209184003091850080916C
:100A4000190290911A02A0E0B0E0DC0199278827F2
:100A500040E050E0820F931FA41FB51F8093200237
:100A600090932102A0932202B09323028091AA01C5
:100A70009091AB019D838C838C819D81892B09F49E
:100A8000A2C01F821E8209C088E893E10197F1F796
:100A90008E819F8101969F838E832E813F818C81E1
:100AA0009D812817390780F32091840030918500BB
:100AB0008091190290911A02A0E0B0E0DC01992720
:100AC000882740E050E0820F931FA41FB51F80933A
:100AD000200290932102A0932202B09323026091FE
:100AE0002002709121028091220290912302209194
:100AF0000C0130910D01E0900902F0900A02009182
:100B00000B0210910C0240E050E00E94010B2E19E4
:100B10003F09400B510B43705070F3E056954795D9
:100B200037952795FA95D1F730930901209308015D
:100B30004AC0E0908400F0908500609119027091A5
:100B40001A02A0902002B0902102C0902202D09000
:100B5000230220910C0130910D0160901F017090D3
:100B60002001809021019090220180E090E0CB0153
:100B70007727662700E010E06E0D7F1D801F911F14
:100B80006A197B098C099D0940E050E00E94010B25
:100B90006216730684069506B0F4579A5F9A2F9AE8
:100BA000239A2B98239A2B981092B0001092B100A0
:100BB000239A2B981092810057985F9850921202B6
:100BC00023E02093230180911E01882329F4809142
:100BD0001202882309F4ADCF80911E01813081F487
:100BE00057985F982F9A239A2B981092B0001092E2
:100BF000B100239A2B981092810083E68093230101
:100C000080911E01813009F06CCB57985F982F9A24
:100C1000239A2B981092B0001092B100239A2B982F
:100C200010928100809313029FC080E6809326017A
:100C300025E0209325011092040115BC1A828EC074
:100C4000809108019091090190930601809305011C
:100C500010921E0210921D0210921F021B8272C07F
:100C60000E94780780910F02813039F410920F02B0
:100C700080931E0183E680932301A090040191E0FC
:100C8000A91609F05FC0509A589A10920401842D59
:100C9000988560E070E040E850E00E942C0B809165
:100CA0000501909106016A814CE729E231E00E943A
:100CB000DD1D8A81809326018B81809327018F5FC0
:100CC0008B8325E0209325018091050190910601F9
:100CD00084589F4F909306018093050180911D02D7
:100CE00090911E0284589F4F90931E0280931D0284
:100CF00020911D0230911E02E0900902F0900A023C
:100D000000910B0210910C0280911F019091200123
:100D1000A0912101B091220140E050E08E0D9F1D75
:100D2000A01FB11F63E0B695A795979587956A9523
:100D3000D1F7281739074A075B0710F0A0921F0266
:100D4000509A589880911E01882329F480911F029F
:100D5000882309F485CF8A818F5F8A838A818430D2
:100D600008F46ECF85E085BD93E690932301B9CA60
:100D700015BC50920F0210921F02509217011AC018
:100D80000E94780790910F029130A1F48091250183
:100D9000873071F410920F02509A589A8091110284
:100DA0006CE749E251E00E941D1D509A589802C01C
:100DB00090931F0280911F02882311F325E025BD27
:100DC00019C082E062E040E050E00E94651D80E0D2
:100DD00063E60E94001C2F98239A2B9A84EC99E0DA
:100DE000F1013197F1F70197D9F72F9A239A2B98B0
:100DF0000E94831D1092230174CA809117018130D3
:100E0000B9F457985F982F9A239A2B981092B000B4
:100E10001092B100239A2B980E94831D219A299A3F
:100E2000209A289A229A2A9A249A2C9A1092170188
:100E300010926C00219A299A209A289A229A2A9A2A
:100E4000249A2C9A80910401813091F4842D988504
:100E500060E070E040E850E00E942C0B109223010B
:100E600083E68093260195E090932501109204017A
:100E70001092090210920A0210920B0210920C02B8
:100E800010921F0110922001109221011092220154
:100E900028CAE9E6F0E0808182608083E89A8BE4EA
:100EA000809330028AE580932F0208951F93DC011E
:100EB000162F80912F0284FF07C08091300298E89E
:100EC00089278093300203C08AE580932F02912FF7
:100ED000E1E3F2E08D9181939150E1F781E392E0BB
:100EE000612F0E94BB081C5F10932F021F91089571
:100EF0001F93CF93DF9360914102635067FDBAC0A7
:100F000080913D02CCE0D0E0C81BD109CB5BDD4F26
:100F100080913C028D3209F09AC0683009F0A8C077
:100F200083EC809324028AE58093000110920201F1
:100F30008881807641F0CE010E949E0A282F8F3F43
:100F400009F474C07AC09A8110922D028981882395
:100F500021F410922E0222E062C0853019F49093A1
:100F600042025CC0863009F045C08B81813019F4A3
:100F700084E990E01BC0823041F486EA90E09093CF
:100F8000400280933F0222E231C08330D1F48A8153
:100F9000882341F488E690E09093400280933F02DA
:100FA00024E024C0813041F48CE690E0909340022C
:100FB00080933F0222E11AC08230B9F48EE790E0BC
:100FC0000EC0813241F488EB90E090934002809310
:100FD0003F0229E00BC0823241F488EC90E090930C
:100FE000400280933F0226E101C020E080E480932C
:100FF000020123C0883021F421E084E492E011C092
:10100000893019F49093440209C08A3011F421E028
:1010100006C08B3019F48BE48093300220E08DE21F
:1010200092E09093400280933F0207C0888187FD41
:101030002E8180E88093020106C08F81882319F4F5
:101040008E81821708F0822F8093010111C0809158
:10105000020187FF0DC0CE010E94B30A8F3F21F429
:101060008EE18093000104C0882311F010920101E9
:10107000109241028091000184FF5AC080910101C9
:101080008F3F09F455C0182F893008F018E0811BF4
:10109000809301018091240298E88927809324029B
:1010A000112399F18091020187FF09C085E292E046
:1010B000612F0E94DE0A182F8930A0F526C02091EA
:1010C0003F023091400286FF0DC0A5E2B2E080E011
:1010D00090E0F901E80FF91FE491ED9301961817DC
:1010E000C1F708C0D901912FE5E2F2E08D9181931B
:1010F0009150E1F71150812F90E01F5F0196820F10
:10110000931F9093400280933F0285E292E0612F0B
:101110000E94BB08612F6C5F6C3041F08FEF8093B1
:10112000010104C08FEF809301016EE16093000123
:1011300094E189B1867031F49150D9F7109242024E
:1011400010923B02DF91CF911F910895A82FB92FE4
:1011500080E090E041E050EA60956F5F58F42D9197
:1011600038EF82279795879510F0842795273F5F62
:10117000C8F3F3CF0895EADF8D939D930895CF933D
:10118000CFB7CF93DF93C395499BE9F7499B16C02F
:10119000499B14C0499B12C0499B10C0499B0EC07B
:1011A000499B0CC0499B0AC0499B08C0499B06C08B
:1011B000C0913E02C395C0933E0283C06F93C0911D
:1011C0003D02DD27CB5BDD4F2F9320E400C065E0BF
:1011D000499B03C02F916F91D9CF0F931F934F93CA
:1011E00045E55F9355E53F933BE014E009B1067098
:1011F0002EC06A95C9F03150D8F109B106700113BB
:101200000BC008942795299320E4555500F46A955E
:1012100069F701E069B10BC0102F66E026952993AC
:1012200020E4555518F3E2CF0FEF69B10000162FF7
:10123000455500F0404066E016700030E2F221F0C3
:10124000000009B1067003C009B10670A9F00113CE
:1012500009C00894279568F200C06A95A9F700E0D4
:1012600069B1E5CF102F66E0269528F20000ECCF9B
:1012700011E01CBB002719C03B503195C31BD04067
:1012800011E01CBB0881033C09F10B34F9F02091FB
:101290003B021981110F1213EDCF4A81441F093609
:1012A00051F10D3211F0013E29F7009343023F91B5
:1012B0005F914F911F910F912F916F91CCB3C0FD12
:1012C00062CFDF91CF91CFBFCF911895209143028C
:1012D000222369F310914102112381F5343082F108
:1012E0003093410220933C0210913D023BE0311BC0
:1012F00030933D0225C0009141020130FCF40AE523
:101300004F7049F43091000134FD1BC0009300017F
:10131000C4E2D2E01AC030912F0234FD12C0009313
:101320002F02C0E3D2E011C0052710E000C00BB9C6
:1013300019C0052710E0221F00C01DC04AE502C0E9
:1013400032ED432FC4E1D0E032E01AB11660599A71
:101350000BB11AB956E020E869E420FF05270BB964
:101360002795179500C000001C3FF0F66695A8F77A
:10137000A1F720FF05270BB92795179500001C3F03
:10138000C0F629913A9541F7097F10914202110F59
:101390000BB9C651D04011F010933B0211E01CBBB9
:1013A00002601AB1197F402F497F55E05A95F1F735
:1013B0000BB91AB94BB97BCF92E094BD85E085BDDE
:1013C00088E187BD90936E0010928000109281009A
:1013D00081E080936F001092B0001092B100239AC8
:1013E0002B98089592E09093680080936C00089584
:1013F00078941F920F920FB60F9211248F939F93A0
:101400008091190290911A02019690931A0280938A
:1014100019029F918F910F900FBE0F901F901895FA
:101420008F9386B18093AD010FB60F921F9280917A
:10143000AC018F5F8093AC018091AC01823010F0E1
:1014400010926C001F900F900FBE8F91189578949A
:101450001F920F920FB60F9211242F933F934F9329
:101460005F936F937F938F939F93AF93BF93EF930C
:10147000FF930E94780780910F02813009F04DC0E0
:1014800010920F0280931402909125019830F1F090
:10149000993060F49230B9F1933018F49130E9F555
:1014A0000EC0963039F19730C1F524C09A3089F1D9
:1014B0009A3030F19B3009F19C3079F505C080916C
:1014C0002301882351F516C082E620C0219A299A6B
:1014D000209A289A229A2A9A249A2C9A8091260154
:1014E000809311026091110282E040E050E00E947E
:1014F000471D13C09093230110C00E94831D0DC08F
:101500000E94361E0AC080931E0183E68093230149
:1015100004C09093230110920401FF91EF91BF91B9
:10152000AF919F918F917F916F915F914F913F917B
:101530002F910F900FBE0F901F901895FC011092E5
:10154000070180818076803261F48181813011F0E1
:10155000893039F480E880931901109218018FEFD7
:10156000089580E008951F93582F792F1092070156
:10157000809119018823E9F0162F861708F4182F97
:101580002091180130E02B5D3E4FC901652F412F9E
:1015900050E00E94230B80911801810F8093180165
:1015A00080911901811B80931901882311F080E03B
:1015B00003C081E080930F021F9108951F93209133
:1015C0001901162F261708F4122F2091180130E068
:1015D0002B5D3E4FB901412F50E00E94230B8091BB
:1015E0001801810F8093180180911901811B80934C
:1015F0001901882319F481E080930401812F1F9140
:101600000895A1E21A2EAA1BBB1BFD010DC0AA1F43
:10161000BB1FEE1FFF1FA217B307E407F50720F05B
:10162000A21BB30BE40BF50B661F771F881F991FD6
:101630001A9469F760957095809590959B01AC011F
:10164000BD01CF010895FB01DC0102C001900D92A4
:1016500041505040D8F70895DC0101C06D934150CE
:101660005040E0F70895F999FECF92BD81BDF89AF8
:0A167000992780B50895F894FFCF84
:02167A005AFF15
:10380000633691F4882319F0813089F506C087B1B9
:103810008F6087B988B1807F05C087B1807F87B905
:1038200088B18F6088B90895882319F08130F9F440
:103830000FC087B121E030E002C0220F331F6A952C
:10384000E2F7822B87B988B12095282328B90895FB
:1038500037B181E090E002C0880F991F6A95E2F7C6
:10386000282F2095232327B928B1822B88B90895C2
:10387000882319F0813031F403C0239A2B980895DE
:10388000239A2B9A0895EF92FF920F931F93DF9341
:10389000CF9300D0CDB7DEB71A821982082F10E07F
:1038A0000D5F1F4F81E0E82EF12C002E02C0EE0CC0
:1038B000FF1C0A94E2F719C080E00E94381C81E0E6
:1038C0000E94381C2A8189B190E08E219F21002E10
:1038D00002C0959587950A94E2F7282B2A838A815E
:1038E000880F8A8389818F5F89838981873020F35C
:1038F00080E00E94381C81E00E94381C8A8129B136
:1039000030E02E213F2102C0359527950A95E2F738
:10391000822B8A838A810F900F90CF91DF911F9124
:103920000F91FF90EF900895FF920F931F93CF9305
:10393000DF938C01F62ECFE0D0E0C8010C2E02C040
:10394000969587950A94E2F781706F2D0E94001C6E
:1039500080E00E94381C81E00E94381C21978FEF84
:10396000CF3FD80751F7DF91CF911F910F91FF9073
:103970000895CF92DF92EF92FF920F931F93CF9310
:10398000DF93C7E0D0E0C62EDD24E82EFF24C60179
:103990000C2E02C0959587950A94E2F7817063E634
:1039A0000E94001CC7010C2E02C0959587950A94B1
:1039B000E2F78C010170802F60E00E94001C802FD4
:1039C00061E00E94001C80E00E94381C81E00E949F
:1039D000381C21979FEFCF3FD907C9F6DF91CF91D0
:1039E0001F910F91FF90EF90DF90CF900895FF927D
:1039F0000F931F93CF93DF93F62EC7E0D0E0082FED
:103A000010E0C8010C2E02C0959587950A94E2F744
:103A100081706F2D0E94001C80E00E94381C81E0A4
:103A20000E94381C21978FEFCF3FD80751F7DF91C5
:103A3000CF911F910F91FF900895FF920F931F93C5
:103A4000CF93DF93F82E062F219A299A209A289A4D
:103A5000229A2A9A249A2C9AEA0110E005C08991A8
:103A60006F2D0E94F71C1F5F1017C8F3DF91CF91D5
:103A70001F910F91FF90089557985F9880E00E94E2
:103A8000381C579A5F9880E00E94381C0895EF9286
:103A9000FF920F931F93E82EF62E8A01219A299AFE
:103AA000209A289A229A2A9A249A2C9A0E943C1D9B
:103AB0008E2D6F2D0E94F71CC8016F2D0E94941C43
:103AC0001F910F91FF90EF900895EF92FF920F9347
:103AD0001F93182F062F7A01219A299A209A289A43
:103AE000229A2A9A249A2C9A0E943C1D812F602F98
:103AF0000E94B91CC70163E60E94941C1F910F919C
:103B0000FF90EF90089580E00E94381C57985F98CE
:103B10000895EF92FF920F931F938C01E62EF42EDF
:103B2000219A299A209A289A229A2A9A249A2C9A97
:103B30000E943C1D82E06F2D0E94F71CC8016F2D72
:103B40000E94941C8E2D6F2D0E94F71C0E94831DD5
:103B50001F910F91FF90EF9008951F93219A299A3A
:103B6000209A289A229A2A9A249A2C9A0E943C1DDA
:103B700085E063E60E94F71C80E00E94431C182F3A
:103B80000E94831D812F1F9108951F93182F219A42
:103B9000299A209A289A229A2A9A249A2C9A0E9440
:103BA0003C1D81E063E60E94F71C812F63E60E94C2
:103BB000F71C0E94831D1F910895CF92DF92EF9210
:103BC000FF920F931F93CF93DF938C01D62EC42EB9
:103BD000F22EE32E219A299A209A289A229A2A9A3A
:103BE000249A2C9A0E943C1D83E06D2D0E94F71CA4
:103BF000C8016D2D0E94941C2F2D3E2DC901EC0192
:103C000000E005C08D2D0E94431C89930F5F0C15A9
:103C1000C8F30E94831DDF91CF911F910F91FF90F8
:103C2000EF90DF90CF900895EF92FF921F937C0169
:103C3000162F219A299A209A289A229A2A9A249A07
:103C40002C9A0E943C1D83E0612F0E94F71CC70143
:103C5000612F0E94941C812F0E94431C182F0E94E8
:103C6000831D812F1F91FF90EF9008956F927F9297
:103C70008F929F92AF92BF92CF92DF92EF92FF927C
:103C80000F931F93DF93CF93CDB7DEB7A0970FB6F7
:103C9000F894DEBF0FBECDBF82EE9FE1A0E0B0E0A2
:103CA000898B9A8BAB8BBC8BF89484B7877F84BF4E
:103CB00080916000886180936000109260003D9860
:103CC00045981A82198223E01CC007B600FCFDCF7C
:103CD000F999FECF07B600FCFDCFF999FECFE98137
:103CE000FA81F695FE2FEE27F795E795209357007A
:103CF000E89507B600FCFDCF89819A8101969A83E9
:103D0000898389819A8180379105F8F2509A589A6F
:103D1000198E1A8E1B8E1C8E83E090E0A0E0B0E01E
:103D20008D8F9E8FAF8FB8A31D861E861F86188A23
:103D30001A82198263E0662E51E1952E77247394DE
:103D400043E0A42EB12CC12CD12C35E0832EF5C03C
:103D50001E821D8289819A819695982F8827979532
:103D600087959C838B838B819C8198878F8307B6F3
:103D700000FCFDCFF999FECFEB81FC8160925700EA
:103D8000E89507B600FCFDCFF999FECF9092570059
:103D9000E89507B600FCFDCFF999FECF1A86198683
:103DA000ACC08F819885019698878F83019760E0DA
:103DB0000E94141E90E09E838D830D811E818F8151
:103DC0009885019698878F83019760E00E94141E62
:103DD000F82EEE240E0D1F1D1E830D838D819E81F6
:103DE0009C878B87898D9A8DAB8DBC8D0196A11D8B
:103DF000B11D898F9A8FAB8FBC8F298D3A8D4B8DDA
:103E00005C8D8D8D9E8DAF8DB8A182179307A40711
:103E1000B507E0F4198E1A8E1B8E1C8E8D8D9E8D2B
:103E2000AF8DB8A10196A11DB11D8D8F9E8FAF8F53
:103E3000B8A38D8D9E8DAF8DB8A184369105A10557
:103E4000B10520F0AD8EBE8ECF8ED8A22D853E85D9
:103E50004F85588989899A89AB89BC89820F931FBC
:103E6000A41FB51F08C08D859E85AF85B889805079
:103E70009040A140B0408D879E87AF87B88B8D85DD
:103E80009E85AF85B88980509040A140B04058F7DA
:103E90008B859C852D853E854F8558898227932764
:103EA0009C878B878B859C859E838D8307B600FCC2
:103EB000FDCFF999FECF8B819C81E985FA852D8113
:103EC0003E81E80FF91F090170925700E89511240F
:103ED00007B600FCFDCFF999FECF8D899E89AF8989
:103EE000B88D0196A11DB11D8D8B9E8BAF8BB88FA8
:103EF00089859A8502969A87898789859A858038E7
:103F0000910508F44ECFEB81FC8180925700E89533
:103F100007B600FCFDCFF999FECF90925700E895C7
:103F200007B600FCFDCFF999FECF07B606FCFDCF22
:103F300089819A8101969A83898389819A818037C0
:103F4000910508F405CF28E288E190E00FB6F894D7
:103F5000A895809360000FBE20936000509A5898F7
:103F6000FDCF109212012F9A239A2B981092800065
:103F70005093890040938800109281008770886078
:103F8000809315011092850010928400EFE6F0E016
:103F9000808182608083E0EBF0E0808182608083BA
:103FA000E1EBF0E080816770862B80832093B30083
:103FB0000895E0EBF0E080818064808380911501BA
:103FC0008093810081E0809312010895809599E0AB
:0E3FD000E1E0F0E0082E90935700E895089588
:00000001FF
