:100000000C946F000C9401070C948C000C948C00E1
:100010000C944D080C948C000C948C000C948C0067
:100020000C948C000C948C000C948C000C948C0020
:100030000C948C000C9435080C943C090C948C00A6
:100040000C948C000C948C000C948C000C948C0000
:100050000C948C000C948C000C948C000C948C00F0
:100060000C948C000C948C000403090412036900A6
:100070006B0061006C006F0067006900630016038D
:100080005300430041004E0041004C004F00470028
:10009000490043001201100100000008A020234184
:1000A0000001010200010902220001010080320961
:1000B00004000001030000000921010100012216D3
:1000C00000070581030800640600FF0901A101156E
:1000D0000026FF00750895800900B20201C01124B6
:1000E0001FBECFEFD4E0DEBFCDBF11E0A0E0B1E096
:1000F000E8E9F4E102C005900D92A230B107D9F70A
:1001000011E0A2E0B1E001C01D92AC3EB107E1F701
:100110000E948E000C944A0A0C9400002F923F9289
:100120004F925F926F927F928F929F92AF92BF9207
:10013000CF92DF92EF92FF920F931F93DF93CF93B3
:1001400000D000D00F92CDB7DEB788E10FB6F8949B
:1001500080936000109260000FBE0E948B053D9856
:100160004598198281E08A8328E833E109C0C901F2
:100170000197F1F789818150898389818823B9F7B3
:100180008A8181508A838A818823A1F73D9A459A82
:100190000E9419087894219A299A209A289A229ADA
:1001A0002A9A249A2C9A279A8AB187788AB9239A0C
:1001B000509A589880E593EC0197F1F72F9A239A7B
:1001C0002B9881E40E94C51D8AEA90E060EA40E035
:1001D0000E94891D8AEA90E061EA41E00E94891D3F
:1001E0008AEA90E062EA42E00E94891D8AEA90E091
:1001F00063EA43E00E94891D8AEA9AE06AE043E6E6
:100200000E94891D00E211E0C80160E070E040E852
:1002100050E00E943B0A73E6F72EF092210185E040
:100220008093200183E090E00E94420A80931501B0
:1002300082E090E00E94420A8093160181E090E003
:100240000E94420A8093170180E090E00E94420AD7
:1002500080931801F0921E010C831D8364EF262EFB
:1002600061E0362E5524539452E4452E80911E01B0
:10027000863009F44FC0873058F4813009F479C0D2
:10028000813098F0823009F46DC2833079F711C360
:100290008A3071F08B3018F4873041F7ADC3823665
:1002A00009F4D1C3833611F7EAC31092AA01DECF55
:1002B0008091150180932101809116018093220184
:1002C000809117018093230180911801809324016C
:1002D0001092250187E080932601809104018130EE
:1002E00029F68C819D8160E070E040E850E00E943A
:1002F0003B0A10921E0193E69093210185E08093C2
:1003000020011092220110922301109224011092D8
:100310000401ACCF1092040187B1807F87B9219A84
:100320002998229A2A9A209A2898249A2C9A86B157
:1003300081708093210186B190E0827090709595D4
:1003400087958093220186B190E084709070959596
:100350008795959587958093230186B190E0887065
:10036000907023E0959587952A95E1F78093240175
:100370007DCF509A58981092A901109219011092AD
:100380006C009FEF9BBB219A299A209A289A229A67
:100390002A9A249A2C9A809121018230D1F08330BC
:1003A00089F1882309F049C082E062E040E050E032
:1003B0000E94651D80E063E60E94001C2F98239A2E
:1003C0002B9A84EC99E0F1013197F1F70197D9F775
:1003D00031C083E062E040E050E00E94651D80E0B3
:1003E00062E00E94001C80E063E00E94001C2F98E5
:1003F000239A2B9A84EC99E0F1013197F1F7019758
:10040000D9F718C082E063E040E050E00E94651D2B
:1004100080E060E00E94001C80E061E00E94001C1F
:100420002F98239A2B9A84EC99E0F1013197F1F7F8
:100430000197D9F72F9A239A2B980E94831D8091B8
:100440002201909123019093A1018093A0018091BA
:10045000A0019091A101A091A201B091A30103E09C
:10046000880F991FAA1FBB1F0A95D1F78093A0017F
:100470009093A101A093A201B093A30180912401C4
:100480009091250190931B0180931A0180911A018C
:1004900090911B01A0911C01B0911D0113E0880FE8
:1004A000991FAA1FBB1F1A95D1F780931A01909329
:1004B0001B01A0931C01B0931D010091210101308B
:1004C00071F0013028F00230A9F0033001F515C0B9
:1004D00082E062E040E050E00E94651D16C083E0CB
:1004E00063E040E050E00E94651D509A589A0093E6
:1004F00012010DC083E062E002C082E063E040E0F0
:1005000050E00E94651D509A589A109212012F9A3D
:10051000239A2B9887B1807F87B980912101813000
:1005200061F0813028F0823069F08330E1F413C04B
:10053000219A2998229A2A9A09C0219A299A229ABC
:100540002A980DC0219A299A229A2A98209A2898A6
:10055000249A2C9A08C0219A2998229A2A9A209A99
:10056000289A249A2C9880912701809303018091E6
:10057000280180930F01809103018330B9F082E05C
:100580008093680080912801882311F48FE00CC0CB
:100590002091280130E02150304081E090E002C0FD
:1005A000880F991F2A95E2F780936C0010928500BE
:1005B000109284001092AC011092AB0120912601A0
:1005C000253009F45AC0263080F42230D9F1233086
:1005D00030F42223E9F0213009F08BC023C023300E
:1005E000B1F1243009F085C042C0283009F457C069
:1005F000293038F4263009F446C0273009F079C094
:1006000048C0293009F451C02A3009F072C05FC0D7
:1006100081E090E090930C0180930B012F98239A36
:100620002B9A67C01092B30082E090E090930C0187
:1006300080930B012F9A239A2B984092B00020931D
:10064000B10056C05092B30084E090E004C0209303
:10065000B30088E090E090930C0180930B012F9AF7
:10066000239A2B984092B0005092B10041C089E08B
:100670008093B30084E190E0EECF83E18093B300F8
:1006800088E290E0E8CF87E28093B30080E590E0D5
:10069000E2CF93E69093B30088EC90E0DCCF87EC58
:1006A0008093B30080E991E0D6CF8CE78093B300CC
:1006B00080ED97E090930C0180930B012F9A239A81
:1006C0002B984092B00082E08093B10011C089EF76
:1006D0008093B30080E89EE390930C0180930B011C
:1006E0002F9A239A2B984092B00093E09093B100F8
:1006F000239A80911201813021F410921E0183E629
:100700002BC05092810080910B0190910C019C01B3
:10071000220F331F220F331F280F391F2093AD01E3
:10072000809103018330A1F41092B2011092B301C1
:100730001092B4011092B5011092A0011092A10183
:100740001092A2011092A3011092080110920701C9
:1007500082E080931E0181E68093210195E09093D1
:10076000200184CD8091AA01813029F0809103017C
:10077000833009F089C082E68093210185E080936F
:10078000200120918400309185008091AB019091EF
:10079000AC01A0E0B0E0DC019927882740E050E000
:1007A000820F931FA41FB51F8093B2019093B301D2
:1007B000A093B401B093B5014AC0E0908400F090DA
:1007C00085006091AB017091AC01A090B201B09036
:1007D000B301C090B401D090B50120910B013091CC
:1007E0000C0160901A0170901B0180901C01909088
:1007F0001D0180E090E0CB017727662700E010E044
:100800006E0D7F1D801F911F6A197B098C099D0940
:1008100040E050E00E94100A6216730684069506B6
:10082000B0F4579A5F9A2F9A239A2B98239A2B9871
:100830001092B0001092B100239A2B981092810070
:1008400057985F985092A90193E090931E01809170
:100850001901882329F48091A901882309F4ADCFD7
:1008600080911901813081F457985F982F9A239ACB
:100870002B981092B0001092B100239A2B981092EE
:10088000810083E680931E0180911901813009F077
:10089000EDCC57985F982F9A239A2B981092B0001E
:1008A0001092B100239A2B98109281008093AA0194
:1008B0009FC080E68093210185E080932001109203
:1008C000040115BC1A828EC0809107019091080125
:1008D00090930601809305011092B0011092AF0130
:1008E0001092B1011B8272C00E94BA058091A601CC
:1008F000813039F41092A6018093190193E6909308
:100900001E01A090040181E0A81609F05FC0509A72
:10091000589A109204018C819D8160E070E040E85B
:1009200050E00E943B0A80910501909106016A8186
:100930004CE724E231E00E94DD1D8A818093210191
:100940008B81809322018F5F8B8395E090932001B0
:10095000809105019091060184589F4F9093060164
:10096000809305018091AF019091B00184589F4F11
:100970009093B0018093AF012091AF013091B0010D
:10098000E090A001F090A1010091A2011091A301BB
:1009900080911A0190911B01A0911C01B0911D0141
:1009A00040E050E08E0D9F1DA01FB11F63E0B69583
:1009B000A795979587956A95D1F7281739074A071C
:1009C0005B0710F0A092B101509A589880911901DC
:1009D000882329F48091B101882309F485CF8A8185
:1009E0008F5F8A838A81843008F46ECF85E085BD6D
:1009F00093E690931E013ACC15BC5092A60110923A
:100A0000B1011AC00E94BA059091A6019130A1F4DB
:100A100080912001873071F41092A601509A589A63
:100A20008091A8016CE744E251E00E941D1D509A9C
:100A3000589802C09093B1018091B101882311F3BD
:100A400085E085BD19C082E062E040E050E00E9490
:100A5000651D80E063E60E94001C2F98239A2B9A64
:100A600084EC99E0F1013197F1F70197D9F72F9ACA
:100A7000239A2B980E94831D10921E01F7CB809120
:100A800012018130B9F457985F982F9A239A2B98C6
:100A90001092B0001092B100239A2B980E94831DEF
:100AA000219A299A209A289A229A2A9A249A2C9A48
:100AB00010921201509A5898219A299A209A289AAD
:100AC000229A2A9A249A2C9A80910401813091F4D6
:100AD0008C819D8160E070E040E850E00E943B0A1C
:100AE00010921E0193E69093210185E080932001EE
:100AF000109204011092A0011092A1011092A20183
:100B00001092A30110921A0110921B0110921C0165
:100B100010921D01ABCBE9E6F0E08081826080831A
:100B2000E89A8BE48093C2018AE58093C10108951D
:100B30001F93DC01162F8091C10184FF07C08091B3
:100B4000C20198E889278093C20103C08AE5809397
:100B5000C101912FE3ECF1E08D9181939150E1F788
:100B600083EC91E0612F0E94FD061C5F1093C10190
:100B70001F9108951F93CF93DF936091D20163502B
:100B800067FDBAC08091CF01CCE0D0E0C81BD1098D
:100B9000CA52DE4F8091CE018D3209F09AC0683082
:100BA00009F0A8C083EC8093B6018AE58093000128
:100BB000109202018881807641F0CE010E94B10935
:100BC000282F8F3F09F474C07AC09A811092BF0118
:100BD0008981882321F41092C00122E062C085300F
:100BE00019F49093D3015CC0863009F045C08B8125
:100BF000813019F484E990E01BC0823041F486EA28
:100C000090E09093D1018093D00122E231C08330F3
:100C1000D1F48A81882341F488E690E09093D10151
:100C20008093D00124E024C0813041F48CE690E030
:100C30009093D1018093D00122E11AC08230B9F49F
:100C40008EE790E00EC0813241F488EB90E0909303
:100C5000D1018093D00129E00BC0823241F488ECAD
:100C600090E09093D1018093D00126E101C020E073
:100C700080E48093020123C0883021F421E085EDD7
:100C800091E011C0893019F49093D50109C08A30E0
:100C900011F421E006C08B3019F48BE48093C2017B
:100CA00020E08FEB91E09093D1018093D00107C0B9
:100CB000888187FD2E8180E88093020106C08F81A4
:100CC000882319F48E81821708F0822F8093010106
:100CD00011C08091020187FF0DC0CE010E94C4099E
:100CE0008F3F21F48EE18093000104C0882311F02E
:100CF000109201011092D2018091000184FF5AC02C
:100D0000809101018F3F09F455C0182F893008F0F8
:100D100018E0811B809301018091B60198E8892732
:100D20008093B601112399F18091020187FF09C0D8
:100D300087EB91E0612F0E94ED09182F8930A0F513
:100D400026C02091D0013091D10186FF0DC0A7EBC4
:100D5000B1E080E090E0F901E80FF91FE491ED9334
:100D600001961817C1F708C0912FD901E7EBF1E000
:100D70008D9181939150E1F71150812F90E01F5F89
:100D80000196820F931F9093D1018093D00187EB3E
:100D900091E0612F0E94FD06612F6C5F6C3041F085
:100DA0008FEF8093010104C08FEF809301016EE10A
:100DB0006093000194E189B1867031F49150D9F7C4
:100DC0001092D3011092CD01DF91CF911F91089520
:100DD000A82FB92F80E090E041E050EA60956F5F66
:100DE00058F42D9138EF82279795879510F0842736
:100DF00095273F5FC8F3F3CF0895EADF8D939D9366
:100E00000895CF93CFB7CF93DF93C395499BE9F76D
:100E1000499B11C0499B0FC0499B0DC0499B0BC00A
:100E2000499B09C0499B07C0499B05C0499B03C01A
:100E3000499B01C083C06F93C091CF01DD27CA5287
:100E4000DE4F2F9320E400C065E0499B03C02F9143
:100E50006F91DECF0F931F934F9345E55F9355E559
:100E60003F933BE014E009B106702EC06A95C9F0CB
:100E70003150D8F109B1067001130BC008942795C1
:100E8000299320E4555500F46A9569F701E069B1AA
:100E90000BC0102F66E02695299320E4555518F3D2
:100EA000E2CF0FEF69B10000162F455500F040402A
:100EB00066E016700030E2F221F0000009B1067021
:100EC00003C009B10670A9F0011309C00894279561
:100ED00068F200C06A95A9F700E069B1E5CF102F6C
:100EE00066E0269528F20000ECCF11E01CBB00273D
:100EF00019C03B503195C31BD04011E01CBB088189
:100F0000033C09F10B34F9F02091CD011981110F47
:100F10001213EDCF4A81441F093651F10D3211F001
:100F2000013E29F70093D4013F915F914F911F91AA
:100F30000F912F916F91CCB3C0FD67CFDF91CF910F
:100F4000CFBFCF9118952091D401222369F310913E
:100F5000D201112381F5343082F13093D2012093F4
:100F6000CE011091CF013BE0311B3093CF0125C062
:100F70000091D2010130FCF40AE54F7049F4309140
:100F8000000134FD1BC000930001C6EBD1E01AC084
:100F90003091C10134FD12C00093C101C2ECD1E017
:100FA00011C0052710E000C00BB919C0052710E0DB
:100FB000221F00C01DC04AE502C032ED432FC4E12C
:100FC000D0E032E01AB11660599A0BB11AB956E066
:100FD00020E869E420FF05270BB92795179500C085
:100FE00000001C3FF0F66695A8F7A1F720FF052743
:100FF0000BB92795179500001C3FC0F629913A952B
:1010000041F7097F1091D301110F0BB9C651D040A0
:1010100011F01093CD0111E01CBB02601AB1197FD1
:10102000402F497F55E05A95F1F70BB91AB94BB9E2
:101030007BCF92E094BD85E085BD88E187BD90932C
:101040006E00109280001092810081E080936F000A
:101050001092B0001092B100239A2B98089592E05C
:101060009093680080936C00089578941F920F927B
:101070000FB60F9211248F939F938091AB019091A3
:10108000AC0101969093AC018093AB019F918F913D
:101090000F900FBE0F901F9018951F920F920FB6D2
:1010A0000F921124DF92EF92FF920F931F932F93D1
:1010B0003F934F935F936F937F938F939F93AF93E0
:1010C000BF93EF93FF93D090030181E0D816A9F06E
:1010D000D81628F082E0D81609F0B8C067C026B14B
:1010E00080910F0130E090E0019702C0359527957F
:1010F0008A95E2F720FF5AC0A9C026B180910F015E
:1011000030E090E0019702C0359527958A95E2F787
:1011100020FF9CC08091AA01882309F097C02091EC
:101120008400309185008091AB019091AC01A0E0EA
:10113000B0E0DC019927882740E050E0820F931F40
:10114000A41FB51F8093B2019093B301A093B40183
:10115000B093B5016091B2017091B3018091B40177
:101160009091B50120910B0130910C01E090A0010C
:10117000F090A1010091A2011091A30140E050E084
:101180000E94100A2E193F09400B510B43705070FA
:1011900063E056954795379527956A95D1F7309333
:1011A000080120930701D092AA014CC08091AA01A6
:1011B000882309F04BC020918400309185008091F4
:1011C000AB019091AC01A0E0B0E0DC019927882749
:1011D00040E050E0820F931FA41FB51F8093B2011F
:1011E0009093B301A093B401B093B5016091B201A3
:1011F0007091B3018091B4019091B50120910B01E0
:1012000030910C01E090A001F090A1010091A201A9
:101210001091A30140E050E00E94100A2E193F09EE
:10122000400B510B4370507083E0569547953795AE
:1012300027958A95D1F7309308012093070181E023
:101240008093AA01509A589A10926C00FF91EF91E6
:10125000BF91AF919F918F917F916F915F914F91CE
:101260003F912F911F910F91FF90EF90DF900F9082
:101270000FBE0F901F90189578941F920F920FB683
:101280000F9211242F933F934F935F936F937F930C
:101290008F939F93AF93BF93EF93FF930E94BA05F1
:1012A0008091A601813009F04BC01092A601909167
:1012B00020019830F1F0993060F49230B9F1933018
:1012C00018F49130E9F50EC0963039F19730C1F538
:1012D00024C09A3089F19A3030F19B3009F19C306A
:1012E00079F505C080911E01882351F516C082E66C
:1012F00020C0219A299A209A289A229A2A9A249AD6
:101300002C9A809121018093A8016091A80182E02C
:1013100040E050E00E94471D13C090931E0110C092
:101320000E94831D0DC00E94361E0AC080931901C1
:1013300083E680931E0104C090931E011092040165
:10134000FF91EF91BF91AF919F918F917F916F919D
:101350005F914F913F912F910F900FBE0F901F9073
:101360001895FC0180818076803261F48181813022
:1013700011F0893039F480E8809314011092130140
:101380008FEF089580E008951F93582F792F809153
:1013900014018823E9F0162F861708F4182F2091DE
:1013A000130130E0205E3E4FC901652F412F50E010
:1013B0000E94320A80911301810F80931301809162
:1013C0001401811B80931401882311F080E003C075
:1013D00081E08093A6011F9108951F93209114012D
:1013E000162F261708F4122F2091130130E0205EEB
:1013F0003E4FB901412F50E00E94320A8091130103
:10140000810F8093130180911401811B809314013B
:10141000882319F481E080930401812F1F9108959E
:10142000A1E21A2EAA1BBB1BFD010DC0AA1FBB1FE8
:10143000EE1FFF1FA217B307E407F50720F0A21B5A
:10144000B30BE40BF50B661F771F881F991F1A94C7
:1014500069F760957095809590959B01AC01BD01F1
:10146000CF010895FB01DC0102C001900D924150B3
:101470005040D8F70895DC0101C06D9341505040B1
:10148000E0F70895F999FECF92BD81BDF89A9927AA
:0814900080B50895F894FFCF28
:021498005AFFF9
:10380000633691F4882319F0813089F506C087B1B9
:103810008F6087B988B1807F05C087B1807F87B905
:1038200088B18F6088B90895882319F08130F9F440
:103830000FC087B121E030E002C0220F331F6A952C
:10384000E2F7822B87B988B12095282328B90895FB
:1038500037B181E090E002C0880F991F6A95E2F7C6
:10386000282F2095232327B928B1822B88B90895C2
:10387000882319F0813031F403C0239A2B980895DE
:10388000239A2B9A0895EF92FF920F931F93DF9341
:10389000CF9300D0CDB7DEB71A821982082F10E07F
:1038A0000D5F1F4F81E0E82EF12C002E02C0EE0CC0
:1038B000FF1C0A94E2F719C080E00E94381C81E0E6
:1038C0000E94381C2A8189B190E08E219F21002E10
:1038D00002C0959587950A94E2F7282B2A838A815E
:1038E000880F8A8389818F5F89838981873020F35C
:1038F00080E00E94381C81E00E94381C8A8129B136
:1039000030E02E213F2102C0359527950A95E2F738
:10391000822B8A838A810F900F90CF91DF911F9124
:103920000F91FF90EF900895FF920F931F93CF9305
:10393000DF938C01F62ECFE0D0E0C8010C2E02C040
:10394000969587950A94E2F781706F2D0E94001C6E
:1039500080E00E94381C81E00E94381C21978FEF84
:10396000CF3FD80751F7DF91CF911F910F91FF9073
:103970000895CF92DF92EF92FF920F931F93CF9310
:10398000DF93C7E0D0E0C62EDD24E82EFF24C60179
:103990000C2E02C0959587950A94E2F7817063E634
:1039A0000E94001CC7010C2E02C0959587950A94B1
:1039B000E2F78C010170802F60E00E94001C802FD4
:1039C00061E00E94001C80E00E94381C81E00E949F
:1039D000381C21979FEFCF3FD907C9F6DF91CF91D0
:1039E0001F910F91FF90EF90DF90CF900895FF927D
:1039F0000F931F93CF93DF93F62EC7E0D0E0082FED
:103A000010E0C8010C2E02C0959587950A94E2F744
:103A100081706F2D0E94001C80E00E94381C81E0A4
:103A20000E94381C21978FEFCF3FD80751F7DF91C5
:103A3000CF911F910F91FF900895FF920F931F93C5
:103A4000CF93DF93F82E062F219A299A209A289A4D
:103A5000229A2A9A249A2C9AEA0110E005C08991A8
:103A60006F2D0E94F71C1F5F1017C8F3DF91CF91D5
:103A70001F910F91FF90089557985F9880E00E94E2
:103A8000381C579A5F9880E00E94381C0895EF9286
:103A9000FF920F931F93E82EF62E8A01219A299AFE
:103AA000209A289A229A2A9A249A2C9A0E943C1D9B
:103AB0008E2D6F2D0E94F71CC8016F2D0E94941C43
:103AC0001F910F91FF90EF900895EF92FF920F9347
:103AD0001F93182F062F7A01219A299A209A289A43
:103AE000229A2A9A249A2C9A0E943C1D812F602F98
:103AF0000E94B91CC70163E60E94941C1F910F919C
:103B0000FF90EF90089580E00E94381C57985F98CE
:103B10000895EF92FF920F931F938C01E62EF42EDF
:103B2000219A299A209A289A229A2A9A249A2C9A97
:103B30000E943C1D82E06F2D0E94F71CC8016F2D72
:103B40000E94941C8E2D6F2D0E94F71C0E94831DD5
:103B50001F910F91FF90EF9008951F93219A299A3A
:103B6000209A289A229A2A9A249A2C9A0E943C1DDA
:103B700085E063E60E94F71C80E00E94431C182F3A
:103B80000E94831D812F1F9108951F93182F219A42
:103B9000299A209A289A229A2A9A249A2C9A0E9440
:103BA0003C1D81E063E60E94F71C812F63E60E94C2
:103BB000F71C0E94831D1F910895CF92DF92EF9210
:103BC000FF920F931F93CF93DF938C01D62EC42EB9
:103BD000F22EE32E219A299A209A289A229A2A9A3A
:103BE000249A2C9A0E943C1D83E06D2D0E94F71CA4
:103BF000C8016D2D0E94941C2F2D3E2DC901EC0192
:103C000000E005C08D2D0E94431C89930F5F0C15A9
:103C1000C8F30E94831DDF91CF911F910F91FF90F8
:103C2000EF90DF90CF900895EF92FF921F937C0169
:103C3000162F219A299A209A289A229A2A9A249A07
:103C40002C9A0E943C1D83E0612F0E94F71CC70143
:103C5000612F0E94941C812F0E94431C182F0E94E8
:103C6000831D812F1F91FF90EF9008956F927F9297
:103C70008F929F92AF92BF92CF92DF92EF92FF927C
:103C80000F931F93DF93CF93CDB7DEB7A0970FB6F7
:103C9000F894DEBF0FBECDBF82EE9FE1A0E0B0E0A2
:103CA000898B9A8BAB8BBC8BF89484B7877F84BF4E
:103CB00080916000886180936000109260003D9860
:103CC00045981A82198223E01CC007B600FCFDCF7C
:103CD000F999FECF07B600FCFDCFF999FECFE98137
:103CE000FA81F695FE2FEE27F795E795209357007A
:103CF000E89507B600FCFDCF89819A8101969A83E9
:103D0000898389819A8180379105F8F2509A589A6F
:103D1000198E1A8E1B8E1C8E83E090E0A0E0B0E01E
:103D20008D8F9E8FAF8FB8A31D861E861F86188A23
:103D30001A82198263E0662E51E1952E77247394DE
:103D400043E0A42EB12CC12CD12C35E0832EF5C03C
:103D50001E821D8289819A819695982F8827979532
:103D600087959C838B838B819C8198878F8307B6F3
:103D700000FCFDCFF999FECFEB81FC8160925700EA
:103D8000E89507B600FCFDCFF999FECF9092570059
:103D9000E89507B600FCFDCFF999FECF1A86198683
:103DA000ACC08F819885019698878F83019760E0DA
:103DB0000E94141E90E09E838D830D811E818F8151
:103DC0009885019698878F83019760E00E94141E62
:103DD000F82EEE240E0D1F1D1E830D838D819E81F6
:103DE0009C878B87898D9A8DAB8DBC8D0196A11D8B
:103DF000B11D898F9A8FAB8FBC8F298D3A8D4B8DDA
:103E00005C8D8D8D9E8DAF8DB8A182179307A40711
:103E1000B507E0F4198E1A8E1B8E1C8E8D8D9E8D2B
:103E2000AF8DB8A10196A11DB11D8D8F9E8FAF8F53
:103E3000B8A38D8D9E8DAF8DB8A184369105A10557
:103E4000B10520F0AD8EBE8ECF8ED8A22D853E85D9
:103E50004F85588989899A89AB89BC89820F931FBC
:103E6000A41FB51F08C08D859E85AF85B889805079
:103E70009040A140B0408D879E87AF87B88B8D85DD
:103E80009E85AF85B88980509040A140B04058F7DA
:103E90008B859C852D853E854F8558898227932764
:103EA0009C878B878B859C859E838D8307B600FCC2
:103EB000FDCFF999FECF8B819C81E985FA852D8113
:103EC0003E81E80FF91F090170925700E89511240F
:103ED00007B600FCFDCFF999FECF8D899E89AF8989
:103EE000B88D0196A11DB11D8D8B9E8BAF8BB88FA8
:103EF00089859A8502969A87898789859A858038E7
:103F0000910508F44ECFEB81FC8180925700E89533
:103F100007B600FCFDCFF999FECF90925700E895C7
:103F200007B600FCFDCFF999FECF07B606FCFDCF22
:103F300089819A8101969A83898389819A818037C0
:103F4000910508F405CF28E288E190E00FB6F894D7
:103F5000A895809360000FBE20936000509A5898F7
:103F6000FDCF10920D012F9A239A2B98109280006A
:103F70005093890040938800109281008770886078
:103F8000809310011092850010928400EFE6F0E01B
:103F9000808182608083E0EBF0E0808182608083BA
:103FA000E1EBF0E080816770862B80832093B30083
:103FB0000895E0EBF0E080818064808380911001BF
:103FC0008093810081E080930D01089591E09093AA
:103FD0000D018295880F880F807C82608093B000ED
:0C3FE00067706093B1004093B300089537
:00000001FF
